:020000040800F2
:1000000000200020790400086D0400086F04000837
:1000100000000000000000000000000000000000E0
:100020000000000000000000000000007104000853
:1000300000000000000000007304000875040008C0
:10004000C9040008C9040008C9040008C90400085C
:10005000C9040008C9040008C9040008C90400084C
:10006000C9040008C9040008C9040008C90400083C
:10007000C9040008C9040008C9040008C90400082C
:10008000C9040008C904000800000000C9040008F1
:10009000C9040008C9040008C9040008C90400080C
:1000A000C9040008C9040008C9040008C9040008FC
:1000B000C904000800000000C90400080000000096
:1000C00010B5064C2378002B07D1054B002B02D02E
:1000D000044800E000BF0123237010BD0000002091
:1000E0000000000014050008044B10B5002B03D0DD
:1000F0000349044800E000BF10BDC04600000000F6
:10010000040000201405000882B0430018180023E2
:10011000019304E0C046C046019B01330193019B5B
:100120008342F7D302B0704770B51420FFF7ECFF9D
:100130000A4CA36980252D022B43A3611420FFF7ED
:10014000E3FFA26980231B061343A3611420FFF77A
:10015000DBFFA3691D43A56170BDC04600080048D0
:1001600010B50400454A91698023DB010B4393617C
:1001700043B2002B46DB9022D205916980231B06F7
:100180000B439361630645D59022D2059169802384
:100190005B010B439361A30644D5394A91698023DF
:1001A0009B000B439361E30643D5354A9169802355
:1001B0005B000B439361FFF7B7FF230740D5902205
:1001C000D205916980231B020B43936163073FD5DE
:1001D0009022D205916980235B010B439361A307B1
:1001E0003ED5274A916980239B000B439361E40726
:1001F0003DD5234A916980235B000B439361FFF750
:1002000093FF10BD9022D205916980231B020B43FE
:100210009361B7E79022D205916980235B050B4378
:100220009361B8E7164A916980239B040B4393615D
:10023000B9E7134A916980235B040B439361BAE7E2
:100240009022D205916980231B060B439361BDE781
:100250009022D205916980235B050B439361BEE731
:10026000074A916980239B040B439361BFE7044ACB
:10027000916980235B040B439361C0E70008004849
:100280000004004870B50500002403E0FFF768FF94
:100290000134E4B2285D0028F8D170BD10B5040027
:1002A000474A91698023DB050B43936143B2002BDE
:1002B00049DB9022D205916980231B060B43936191
:1002C000630648D59022D205916980235B010B43D8
:1002D0009361A30647D53B4A916980239B000B435A
:1002E0009361E30646D5374A916980235B000B434F
:1002F0009361FFF719FF230743D59022D205916937
:1003000080231B020B439361630742D59022D205E1
:10031000916980235B010B439361A30741D5294A6F
:10032000916980239B000B439361E40740D5254AE4
:10033000916980235B000B439361FFF7F5FE224830
:10034000FFF7E2FE10BD9022D205916980231B02C7
:100350000B439361B4E79022D205916980235B053A
:100360000B439361B5E7174A916980239B040B43C4
:100370009361B6E7134A916980235B040B43936151
:10038000B7E79022D205916980231B060B43936146
:10039000BAE79022D205916980235B050B439361F4
:1003A000BBE7084A916980239B040B439361BCE738
:1003B000044A916980235B040B439361BDE7C04607
:1003C0000008004800040048B80B000010B51B4BA3
:1003D0005969802292020A435A6159698022D202E5
:1003E0000A435A615969802212030A435A619022D2
:1003F000D20511688223DB050B431360104A116894
:10040000A023DB020B4313600E4A1168A023DB0517
:100410000B4313600C48FFF777FE3320FFF73EFFD6
:100420003220FFF73BFF0C20FFF738FF2820FFF7B3
:1004300035FF0120FFF732FF10BDC046001002401B
:1004400000040048000800483075000010B5FFF7B0
:10045000BDFF0120FFF722FF0148FFF713FF10BD8A
:100460002C05000810B5FFF7F1FFFEE7FEE7FEE7F9
:1004700070477047704770470D488546FFF7FBFF90
:100480000C480D490D4A002302E0D458C4500433EF
:10049000C4188C42F9D30A4A0A4C002301E01360C5
:1004A0000432A242FBD300F011F8FFF7DBFFFEE7B6
:1004B000002000200000002000000020440500086B
:1004C000000000201C000020FEE7000070B50026A0
:1004D0000C4C0D4D641BA410A64209D1002600F05F
:1004E00019F80A4C0A4D641BA410A64205D170BD30
:1004F000B300EB5898470136EEE7B300EB58984746
:100500000136F2E73C0500083C05000840050008FC
:100510003C050008F8B5C046F8BC08BC9E467047CC
:0C052000F8B5C046F8BC08BC9E46704709
:10052C0048656C6C6F20576F726C6421203A2900FF
:04053C00E9000008CA
:04054000C1000008EE
:040000050800047972
:00000001FF
